:020000041004E6
:1000000000000120ED0304103D0404103D04041021
:1000100000000000000000000000000000000000E0
:100020000000000000000000000000003D0404107B
:1000300000000000000000003D0404103D04041016
:100040003D0404103D0404103D0404103D0404105C
:100050000000000000000000000000003D0404104B
:100060003D0404103D0404103D0404103D0404103C
:100070003D0404103D040410000000003D04041081
:100080003D0404103D0404103D0404100000000071
:100090003D04041000000000000000003D040410B6
:1000A0003D0404103D0404103D0404103D040410FC
:0400B0003D040410F7
:1000B40010B5064C2378002B07D1054B002B02D03A
:1000C400044800E000BF0123237010BD000000209D
:1000D4000000000088040410044B10B5002B03D06A
:1000E4000349044800E000BF10BDC0460000000002
:1000F400040000208804041080B582B000AF78604A
:100104000A00FB1C1A70FB1C1B78012B16D17A68A1
:100114009023DB059A4206D1154BDA6B144B04216C
:100124000A43DA6320E07B68124A93421CD1104BE5
:10013400DA6B0F4B08210A43DA6315E07A689023DF
:10014400DB059A4206D10A4BDA6B094B04218A4338
:10015400DA6309E07B68074A934205D1044BDA6B02
:10016400034B04218A43DA63C046BD4602B080BD16
:10017400000040480000104880B586B000AF7860A9
:1001840000237B617B685B79032B1ED87B685B79DA
:100194001A007B681B795B009A4013007B617B68C3
:1001A4001B681A687B681B79190003238B40DB43A7
:1001B40019007B681B680A401A607B681B68196811
:1001C4007B681B687A690A431A6000237B617B6839
:1001D400DB791A007B681B795B009A4013007B6112
:1001E4007B681B68DA687B681B79190003238B40E2
:1001F400DB4319007B681B680A40DA607B681B6874
:10020400D9687B681B687A690A43DA6000237B61DA
:100214007B681B7A1A007B681B799A4013007B6108
:100224007B681B685A687B681B79190001238B4023
:10023400DB4319007B681B680A405A607B681B68B3
:1002440059687B681B687A690A435A607B685B79E2
:10025400022B3BD17B681B79DB08DBB23B617B68FB
:100264001B791A0007231340FB607B681A683B69FB
:1002740008339B00D31804331A68FB689B000F21D2
:1002840099400B00DB4318007B68196802403B6906
:1002940008339B00CB1804331A607B681A683B69E7
:1002A40008339B00D31804331A687B685B7A1900FF
:1002B400FB689B0099400B0018007B681968024397
:1002C4003B6908339B00CB1804331A60C046BD4613
:1002D40006B080BD80B584B000AF78600A00FB1C16
:1002E4001A707B681A69FB1C1B78DA401300DAB2B7
:1002F4000F203B1801210A401A703B181B78180084
:10030400BD4604B080BD80B582B000AF78600A00FD
:10031400FB1C1A707B685B69FA1C127801219140FE
:100324000A005A407B685A61C046BD4602B080BD8F
:1003340080B582B000AF00237B6002E07B680133AC
:100344007B607B68034A9342F8D9C046C046BD46E9
:1003540002B080BD8FD0030090B587B000AF0C24ED
:100364003B19204A1A603B1901221A713B190122D8
:100374005A713B1900221A723B190022DA71194B87
:1003840001211800FFF7B8FE3B191800FFF7F4FE2F
:100394003B009022D2051A603B0000221A713B00F8
:1003A40000225A713B0000221A723B000022DA71CB
:1003B4009023DB0501211800FFF79EFE3B00180087
:1003C400FFF7DAFE9023DB0500211800FFF782FF18
:1003D400031EF7D1FFF7ACFF024B01211800FFF712
:1003E40092FFEFE7000010480D48854600E000BF8B
:1003F4000C480D490D4A002302E0D458C45004337C
:10040400C4188C42F9D30A4A0A4C002301E0136051
:100414000432A242FBD300F011F8FFF79DFFFEE780
:10042400000001200000002000000020A8040410A7
:10043400000000201C000020FEE7000070B500262C
:100444000C4C0D4D641BA410A64209D1002600F0EB
:1004540019F80A4C0A4D641BA410A64205D170BDBC
:10046400B300EB5898470136EEE7B300EB589847D2
:100474000136F2E7A0040410A0040410A40404103C
:10048400A0040410F8B5C046F8BC08BC9E467047EA
:0C049400F8B5C046F8BC08BC9E46704796
:0404A000DD00041067
:0404A400B50004108B
:04000005100403EDF3
:00000001FF
