:020000041004E6
:1000000000000120A5050410F5050410F5050410F5
:1000100000000000000000000000000000000000E0
:10002000000000000000000000000000F5050410C2
:100030000000000000000000F5050410F5050410A4
:10004000F5050410F5050410F5050410F505041078
:10005000000000000000000000000000F505041092
:10006000F5050410F5050410F5050410F505041058
:10007000F5050410F505041000000000F505041056
:10008000F5050410F5050410F50504100000000046
:10009000F50504100000000000000000F505041044
:1000A000F5050410F5050410F5050410F505041018
:0400B000F50504103E
:1000B40010B5064C2378002B07D1054B002B02D03A
:1000C400044800E000BF0123237010BD000000209D
:1000D4000000000040060410044B10B5002B03D0B0
:1000E4000349044800E000BF10BDC0460000000002
:1000F40004000020400604100023C25C0133002ADF
:10010400FBD1581E7047000080B582B000AF786004
:100114000A00FB1C1A70FB1C1B78012B16D17A6891
:100124009023DB059A4206D1154BDA6B144B04215C
:100134000A43DA6320E07B68124A93421CD1104BD5
:10014400DA6B0F4B08210A43DA6315E07A689023CF
:10015400DB059A4206D10A4BDA6B094B04218A4328
:10016400DA6309E07B68074A934205D1044BDA6BF2
:10017400034B04218A43DA63C046BD4602B080BD06
:10018400000040480000104880B586B000AF786099
:100194007B681B6801211800FFF7B6FF00237B6111
:1001A4007B685B79032B1ED87B685B791A007B68BC
:1001B4001B795B009A4013007B617B681B681A689B
:1001C4007B681B79190003238B40DB4319007B6890
:1001D4001B680A401A607B681B6819687B681B6887
:1001E4007A690A431A6000237B617B68DB791A0011
:1001F4007B681B795B009A4013007B617B681B68FA
:10020400DA687B681B79190003238B40DB431900F0
:100214007B681B680A40DA607B681B68D9687B6866
:100224001B687A690A43DA6000237B617B681B7A66
:100234001A007B681B799A4013007B617B681B68FA
:100244005A687B681B79190001238B40DB43190032
:100254007B681B680A405A607B681B6859687B6826
:100264001B687A690A435A607B685B79022B3BD12D
:100274007B681B79DB08DBB23B617B681B791A0066
:1002840007231340FB607B681A683B6908339B00B3
:10029400D31804331A68FB689B000F2199400B00A4
:1002A400DB4318007B68196802403B6908339B00F4
:1002B400CB1804331A607B681A683B6908339B00C7
:1002C400D31804331A687B685B7A1900FB689B00B7
:1002D40099400B0018007B68196802433B69083396
:1002E4009B00CB1804331A60C046BD4606B080BDDF
:1002F40080B582B000AF78600A00FB1C1A70FB1C4A
:100304001B78012B0BD17B680C4A934211D10C4B07
:100314005A6C0B4B8021C9010A435A6409E07B687B
:10032400064A934205D1064B5A6C054B05490A40CF
:100334005A64C046BD4602B080BDC046007000414C
:1003440000004048FFBFFFFF80B584B000AF786075
:100354007B681B6801211800FFF7CAFF0023FB60BC
:100364000023BB607B681B799B00FA681343FB6026
:100374007B685B79012B04D1FB681E4A1340FB6048
:1003840014E07B685B79022B04D1FB68194A1343A0
:10039400FB600BE07B685B79032B07D1FB68154A94
:1003A4001340FB60FB68144A1340FB607B689B7935
:1003B400DB00FA681343FB607B68DB791B02BA68D5
:1003C4001343BB607B681B7A5B00FA681343FB60D2
:1003D4007B685B7A1A00FB681343FB607B681B68CD
:1003E400FA681A607B681B68BA685A60C046BD46E2
:1003F40004B080BDFF7FFFFFFFFBFFFF80B582B02D
:1004040000AF786039607B689B683A68134001D01C
:10041400012300E000231800BD4602B080BD80B572
:1004240084B000AFF860B9607A6027E0C046FB682A
:1004340002211800FFF7E2FF031EF8D0FB681A68D8
:1004440080235B0013400ED0BB681B881A00FB6836
:10045400DA607B68013B7B607B68013B7B60BB6847
:100464000133BB600AE0BB681B781A00FB68DA60E2
:100474007B68013B7B60BB680133BB607B68002BFE
:10048400D4D1C046C046BD4604B080BD80B582B05C
:1004940000AF78600A00FB1C1A70FB1C1B78012B50
:1004A40006D17B681B6840221A437B681A6006E009
:1004B4007B681B68402293431A007B681A60C0461D
:1004C400BD4602B080BD000080B584B000AF3B1DC6
:1004D4000F4A1A603B1D02225A713B1D03225A72B5
:1004E4003B1D00221A723B1D0022DA713B1D0322C0
:1004F4001A713B1D1800FFF747FE3B1D0B221A71B2
:100504003B1D1800FFF740FEC046BD4604B080BD49
:100514000000104880B584B000AF3B1D0F4A1A603C
:100524003B1D01225A713B1D01221A713B1D002201
:100534009A713B1D0022DA713B1D00221A723B1D89
:1005440000225A723B1D00229A723B1D1800FFF7CD
:10055400FBFEC046BD4604B080BDC04600700041ED
:1005640090B585B000AF3B1D0B4A13CA13C3FFF708
:10057400ABFFFFF7CFFF094B01211800FFF786FF00
:100584003B1D1800FFF7B8FD02003B1D034819008E
:10059400FFF745FFC046FDE7580604100070004110
:1005A4000D48854600E000BF0C480D490D4A002364
:1005B40002E0D458C4500433C4188C42F9D30A4A14
:1005C4000A4C002301E013600432A242FBD300F082
:1005D40011F8FFF7C5FFFEE700000120000000202E
:1005E400000000206C060410000000201C00002005
:1005F400FEE7000070B500260C4C0D4D641BA410E2
:10060400A64209D1002600F019F80A4C0A4D641BD1
:10061400A410A64205D170BDB300EB58984701362B
:10062400EEE7B300EB5898470136F2E7640604108E
:10063400640604106806041064060410F8B5C04685
:10064400F8BC08BC9E467047F8B5C046F8BC08BC68
:040654009E46704707
:0C06580048656C6C6F20576F726C64007A
:04066400DD000410A1
:04066800B5000410C5
:04000005100405A539
:00000001FF
